{
  "_format": "hh-sol-artifact-1",
  "contractName": "TaskContract",
  "sourceName": "contracts/TaskContract.sol",
  "abi": [
    {
      "anonymous": false,
      "inputs": [
        {
          "indexed": false,
          "internalType": "address",
          "name": "recipient",
          "type": "address"
        },
        {
          "indexed": false,
          "internalType": "uint256",
          "name": "taskId",
          "type": "uint256"
        }
      ],
      "name": "AddTask",
      "type": "event"
    },
    {
      "anonymous": false,
      "inputs": [
        {
          "indexed": false,
          "internalType": "uint256",
          "name": "taskId",
          "type": "uint256"
        },
        {
          "indexed": false,
          "internalType": "bool",
          "name": "isDeleted",
          "type": "bool"
        }
      ],
      "name": "DeleteTask",
      "type": "event"
    },
    {
      "inputs": [
        {
          "internalType": "string",
          "name": "taskText",
          "type": "string"
        },
        {
          "internalType": "bool",
          "name": "isDeleted",
          "type": "bool"
        }
      ],
      "name": "addTask",
      "outputs": [],
      "stateMutability": "nonpayable",
      "type": "function"
    },
    {
      "inputs": [
        {
          "internalType": "uint256",
          "name": "taskId",
          "type": "uint256"
        },
        {
          "internalType": "bool",
          "name": "isDeleted",
          "type": "bool"
        }
      ],
      "name": "deleteTask",
      "outputs": [],
      "stateMutability": "nonpayable",
      "type": "function"
    },
    {
      "inputs": [],
      "name": "getMyTasks",
      "outputs": [
        {
          "components": [
            {
              "internalType": "uint256",
              "name": "id",
              "type": "uint256"
            },
            {
              "internalType": "string",
              "name": "taskText",
              "type": "string"
            },
            {
              "internalType": "bool",
              "name": "isDeleted",
              "type": "bool"
            }
          ],
          "internalType": "struct TaskContract.Task[]",
          "name": "",
          "type": "tuple[]"
        }
      ],
      "stateMutability": "view",
      "type": "function"
    }
  ],
  "bytecode": "0x608060405234801561001057600080fd5b50610888806100206000396000f3fe608060405234801561001057600080fd5b50600436106100415760003560e01c806320df4581146100465780636e13f8181461005b578063aaba290714610079575b600080fd5b610059610054366004610528565b61008c565b005b610063610192565b60405161007091906105ea565b60405180910390f35b6100596100873660046106a9565b610458565b600080546040805160608101825282815260208101868152851515928201929092526001830184559280528251600383027f290decd9548b62a8d60345a988386fc84ba6bc95484008f6362f93160ef3e5638101918255915192939290917f290decd9548b62a8d60345a988386fc84ba6bc95484008f6362f93160ef3e56401906101179082610755565b50604091820151600291909101805460ff1916911515919091179055600082815260016020908152908290208054336001600160a01b0319909116811790915582519081529081018390527f1f54e1ba1832d428fbd7e7792beaf62b1fc5a382c207ffd614209c1413e94fda910160405180910390a1505050565b600080546060919067ffffffffffffffff8111156101b2576101b26104fd565b60405190808252806020026020018201604052801561020957816020015b6101f6604051806060016040528060008152602001606081526020016000151581525090565b8152602001906001900390816101d05790505b5090506000805b600054811015610385576000818152600160205260409020546001600160a01b03163314801561026757506000818154811061024e5761024e610815565b600091825260209091206002600390920201015460ff16155b15610373576000818154811061027f5761027f610815565b9060005260206000209060030201604051806060016040529081600082015481526020016001820180546102b2906106cc565b80601f01602080910402602001604051908101604052809291908181526020018280546102de906106cc565b801561032b5780601f106103005761010080835404028352916020019161032b565b820191906000526020600020905b81548152906001019060200180831161030e57829003601f168201915b50505091835250506002919091015460ff161515602090910152835184908490811061035957610359610815565b6020026020010181905250818061036f9061082b565b9250505b8061037d8161082b565b915050610210565b5060008167ffffffffffffffff8111156103a1576103a16104fd565b6040519080825280602002602001820160405280156103f857816020015b6103e5604051806060016040528060008152602001606081526020016000151581525090565b8152602001906001900390816103bf5790505b50905060005b828110156104505783818151811061041857610418610815565b602002602001015182828151811061043257610432610815565b602002602001018190525080806104489061082b565b9150506103fe565b509392505050565b600082815260016020526040902054336001600160a01b03909116036104f957806000838154811061048c5761048c610815565b906000526020600020906003020160020160006101000a81548160ff0219169083151502179055507ff88a35c3d2016c409a46570b994a17b408dbc83c14a03f521512d50b85386d0682826040516104f09291909182521515602082015260400190565b60405180910390a15b5050565b634e487b7160e01b600052604160045260246000fd5b8035801515811461052357600080fd5b919050565b6000806040838503121561053b57600080fd5b823567ffffffffffffffff8082111561055357600080fd5b818501915085601f83011261056757600080fd5b813581811115610579576105796104fd565b604051601f8201601f19908116603f011681019083821181831017156105a1576105a16104fd565b816040528281528860208487010111156105ba57600080fd5b8260208601602083013760006020848301015280965050505050506105e160208401610513565b90509250929050565b60006020808301818452808551808352604092508286019150828160051b8701018488016000805b8481101561069a57603f198a8503018652825160608151865289820151818b880152805180838901528592505b8083101561065d578183018c015188840160800152918b019161063f565b608092508583828a0101528a840151935061067b8b89018515159052565b988b0198601f01601f1916969096010194505091870191600101610612565b50919998505050505050505050565b600080604083850312156106bc57600080fd5b823591506105e160208401610513565b600181811c908216806106e057607f821691505b60208210810361070057634e487b7160e01b600052602260045260246000fd5b50919050565b601f82111561075057600081815260208120601f850160051c8101602086101561072d5750805b601f850160051c820191505b8181101561074c57828155600101610739565b5050505b505050565b815167ffffffffffffffff81111561076f5761076f6104fd565b6107838161077d84546106cc565b84610706565b602080601f8311600181146107b857600084156107a05750858301515b600019600386901b1c1916600185901b17855561074c565b600085815260208120601f198616915b828110156107e7578886015182559484019460019091019084016107c8565b50858210156108055787850151600019600388901b60f8161c191681555b5050505050600190811b01905550565b634e487b7160e01b600052603260045260246000fd5b60006001820161084b57634e487b7160e01b600052601160045260246000fd5b506001019056fea2646970667358221220dde74e62b1c9e738ee72a0b665cc4acd1f89cd332371de027d3d66771b2d92fb64736f6c63430008110033",
  "linkReferences": {},
  "deployedLinkReferences": {}
}